{
  "address": "0x33ccf26695a3782799D50e3f169Ce1135939b068",
  "abi": [
    {
      "inputs": [],
      "stateMutability": "nonpayable",
      "type": "constructor"
    },
    {
      "anonymous": false,
      "inputs": [
        {
          "indexed": true,
          "internalType": "address",
          "name": "owner",
          "type": "address"
        },
        {
          "indexed": true,
          "internalType": "address",
          "name": "approved",
          "type": "address"
        },
        {
          "indexed": true,
          "internalType": "uint256",
          "name": "tokenId",
          "type": "uint256"
        }
      ],
      "name": "Approval",
      "type": "event"
    },
    {
      "anonymous": false,
      "inputs": [
        {
          "indexed": true,
          "internalType": "address",
          "name": "owner",
          "type": "address"
        },
        {
          "indexed": true,
          "internalType": "address",
          "name": "operator",
          "type": "address"
        },
        {
          "indexed": false,
          "internalType": "bool",
          "name": "approved",
          "type": "bool"
        }
      ],
      "name": "ApprovalForAll",
      "type": "event"
    },
    {
      "anonymous": false,
      "inputs": [
        {
          "indexed": true,
          "internalType": "uint256",
          "name": "tokenId",
          "type": "uint256"
        },
        {
          "indexed": false,
          "internalType": "string",
          "name": "tokenURI",
          "type": "string"
        }
      ],
      "name": "CreatedSVGNFT",
      "type": "event"
    },
    {
      "anonymous": false,
      "inputs": [
        {
          "indexed": true,
          "internalType": "address",
          "name": "from",
          "type": "address"
        },
        {
          "indexed": true,
          "internalType": "address",
          "name": "to",
          "type": "address"
        },
        {
          "indexed": true,
          "internalType": "uint256",
          "name": "tokenId",
          "type": "uint256"
        }
      ],
      "name": "Transfer",
      "type": "event"
    },
    {
      "inputs": [
        {
          "internalType": "address",
          "name": "to",
          "type": "address"
        },
        {
          "internalType": "uint256",
          "name": "tokenId",
          "type": "uint256"
        }
      ],
      "name": "approve",
      "outputs": [],
      "stateMutability": "nonpayable",
      "type": "function"
    },
    {
      "inputs": [
        {
          "internalType": "address",
          "name": "owner",
          "type": "address"
        }
      ],
      "name": "balanceOf",
      "outputs": [
        {
          "internalType": "uint256",
          "name": "",
          "type": "uint256"
        }
      ],
      "stateMutability": "view",
      "type": "function"
    },
    {
      "inputs": [
        {
          "internalType": "string",
          "name": "svg",
          "type": "string"
        }
      ],
      "name": "create",
      "outputs": [],
      "stateMutability": "nonpayable",
      "type": "function"
    },
    {
      "inputs": [
        {
          "internalType": "string",
          "name": "imageURI",
          "type": "string"
        }
      ],
      "name": "formatTokenURI",
      "outputs": [
        {
          "internalType": "string",
          "name": "",
          "type": "string"
        }
      ],
      "stateMutability": "pure",
      "type": "function"
    },
    {
      "inputs": [
        {
          "internalType": "uint256",
          "name": "tokenId",
          "type": "uint256"
        }
      ],
      "name": "getApproved",
      "outputs": [
        {
          "internalType": "address",
          "name": "",
          "type": "address"
        }
      ],
      "stateMutability": "view",
      "type": "function"
    },
    {
      "inputs": [
        {
          "internalType": "address",
          "name": "owner",
          "type": "address"
        },
        {
          "internalType": "address",
          "name": "operator",
          "type": "address"
        }
      ],
      "name": "isApprovedForAll",
      "outputs": [
        {
          "internalType": "bool",
          "name": "",
          "type": "bool"
        }
      ],
      "stateMutability": "view",
      "type": "function"
    },
    {
      "inputs": [],
      "name": "name",
      "outputs": [
        {
          "internalType": "string",
          "name": "",
          "type": "string"
        }
      ],
      "stateMutability": "view",
      "type": "function"
    },
    {
      "inputs": [
        {
          "internalType": "uint256",
          "name": "tokenId",
          "type": "uint256"
        }
      ],
      "name": "ownerOf",
      "outputs": [
        {
          "internalType": "address",
          "name": "",
          "type": "address"
        }
      ],
      "stateMutability": "view",
      "type": "function"
    },
    {
      "inputs": [
        {
          "internalType": "address",
          "name": "from",
          "type": "address"
        },
        {
          "internalType": "address",
          "name": "to",
          "type": "address"
        },
        {
          "internalType": "uint256",
          "name": "tokenId",
          "type": "uint256"
        }
      ],
      "name": "safeTransferFrom",
      "outputs": [],
      "stateMutability": "nonpayable",
      "type": "function"
    },
    {
      "inputs": [
        {
          "internalType": "address",
          "name": "from",
          "type": "address"
        },
        {
          "internalType": "address",
          "name": "to",
          "type": "address"
        },
        {
          "internalType": "uint256",
          "name": "tokenId",
          "type": "uint256"
        },
        {
          "internalType": "bytes",
          "name": "_data",
          "type": "bytes"
        }
      ],
      "name": "safeTransferFrom",
      "outputs": [],
      "stateMutability": "nonpayable",
      "type": "function"
    },
    {
      "inputs": [
        {
          "internalType": "address",
          "name": "operator",
          "type": "address"
        },
        {
          "internalType": "bool",
          "name": "approved",
          "type": "bool"
        }
      ],
      "name": "setApprovalForAll",
      "outputs": [],
      "stateMutability": "nonpayable",
      "type": "function"
    },
    {
      "inputs": [
        {
          "internalType": "bytes4",
          "name": "interfaceId",
          "type": "bytes4"
        }
      ],
      "name": "supportsInterface",
      "outputs": [
        {
          "internalType": "bool",
          "name": "",
          "type": "bool"
        }
      ],
      "stateMutability": "view",
      "type": "function"
    },
    {
      "inputs": [
        {
          "internalType": "string",
          "name": "svg",
          "type": "string"
        }
      ],
      "name": "svgToImage",
      "outputs": [
        {
          "internalType": "string",
          "name": "",
          "type": "string"
        }
      ],
      "stateMutability": "pure",
      "type": "function"
    },
    {
      "inputs": [],
      "name": "symbol",
      "outputs": [
        {
          "internalType": "string",
          "name": "",
          "type": "string"
        }
      ],
      "stateMutability": "view",
      "type": "function"
    },
    {
      "inputs": [],
      "name": "tokenCounter",
      "outputs": [
        {
          "internalType": "uint256",
          "name": "",
          "type": "uint256"
        }
      ],
      "stateMutability": "view",
      "type": "function"
    },
    {
      "inputs": [
        {
          "internalType": "uint256",
          "name": "tokenId",
          "type": "uint256"
        }
      ],
      "name": "tokenURI",
      "outputs": [
        {
          "internalType": "string",
          "name": "",
          "type": "string"
        }
      ],
      "stateMutability": "view",
      "type": "function"
    },
    {
      "inputs": [
        {
          "internalType": "address",
          "name": "from",
          "type": "address"
        },
        {
          "internalType": "address",
          "name": "to",
          "type": "address"
        },
        {
          "internalType": "uint256",
          "name": "tokenId",
          "type": "uint256"
        }
      ],
      "name": "transferFrom",
      "outputs": [],
      "stateMutability": "nonpayable",
      "type": "function"
    }
  ],
  "transactionHash": "0xdaafc73a2ea826f3e41ecb8b196e56947dee5bfb282acd532df6c8703d433654",
  "args": [],
  "solcInputHash": "e935807c621f4536d5cd86ab28222f28",
  "bytecode": "0x60806040523480156200001157600080fd5b506040518060400160405280600781526020017f535647204e4654000000000000000000000000000000000000000000000000008152506040518060400160405280600681526020017f7376674e46540000000000000000000000000000000000000000000000000000815250816000908051906020019062000096929190620000c0565b508060019080519060200190620000af929190620000c0565b5050506000600781905550620001d5565b828054620000ce9062000170565b90600052602060002090601f016020900481019282620000f257600085556200013e565b82601f106200010d57805160ff19168380011785556200013e565b828001600101855582156200013e579182015b828111156200013d57825182559160200191906001019062000120565b5b5090506200014d919062000151565b5090565b5b808211156200016c57600081600090555060010162000152565b5090565b600060028204905060018216806200018957607f821691505b60208210811415620001a0576200019f620001a6565b5b50919050565b7f4e487b7100000000000000000000000000000000000000000000000000000000600052602260045260246000fd5b6131ff80620001e56000396000f3fe608060405234801561001057600080fd5b506004361061010b5760003560e01c806370a08231116100a2578063b6a46b3b11610071578063b6a46b3b146102dc578063b88d4fde146102f8578063c87b56dd14610314578063d082e38114610344578063e985e9c5146103625761010b565b806370a082311461024257806371aee1931461027257806395d89b41146102a2578063a22cb465146102c05761010b565b806323b872dd116100de57806323b872dd146101aa57806342842e0e146101c65780636352211e146101e2578063696e6c3c146102125761010b565b806301ffc9a71461011057806306fdde0314610140578063081812fc1461015e578063095ea7b31461018e575b600080fd5b61012a60048036038101906101259190611fca565b610392565b6040516101379190612525565b60405180910390f35b610148610474565b6040516101559190612540565b60405180910390f35b6101786004803603810190610173919061205d565b610506565b60405161018591906124be565b60405180910390f35b6101a860048036038101906101a39190611f8e565b61058b565b005b6101c460048036038101906101bf9190611e88565b6106a3565b005b6101e060048036038101906101db9190611e88565b610703565b005b6101fc60048036038101906101f7919061205d565b610723565b60405161020991906124be565b60405180910390f35b61022c6004803603810190610227919061201c565b6107d5565b6040516102399190612540565b60405180910390f35b61025c60048036038101906102579190611e23565b61086e565b6040516102699190612762565b60405180910390f35b61028c6004803603810190610287919061201c565b610926565b6040516102999190612540565b60405180910390f35b6102aa6109b3565b6040516102b79190612540565b60405180910390f35b6102da60048036038101906102d59190611f52565b610a45565b005b6102f660048036038101906102f1919061201c565b610bc6565b005b610312600480360381019061030d9190611ed7565b610c4c565b005b61032e6004803603810190610329919061205d565b610cae565b60405161033b9190612540565b60405180910390f35b61034c610e00565b6040516103599190612762565b60405180910390f35b61037c60048036038101906103779190611e4c565b610e06565b6040516103899190612525565b60405180910390f35b60007f80ac58cd000000000000000000000000000000000000000000000000000000007bffffffffffffffffffffffffffffffffffffffffffffffffffffffff1916827bffffffffffffffffffffffffffffffffffffffffffffffffffffffff1916148061045d57507f5b5e139f000000000000000000000000000000000000000000000000000000007bffffffffffffffffffffffffffffffffffffffffffffffffffffffff1916827bffffffffffffffffffffffffffffffffffffffffffffffffffffffff1916145b8061046d575061046c82610e9a565b5b9050919050565b60606000805461048390612a12565b80601f01602080910402602001604051908101604052809291908181526020018280546104af90612a12565b80156104fc5780601f106104d1576101008083540402835291602001916104fc565b820191906000526020600020905b8154815290600101906020018083116104df57829003601f168201915b5050505050905090565b600061051182610f04565b610550576040517f08c379a0000000000000000000000000000000000000000000000000000000008152600401610547906126c2565b60405180910390fd5b6004600083815260200190815260200160002060009054906101000a900473ffffffffffffffffffffffffffffffffffffffff169050919050565b600061059682610723565b90508073ffffffffffffffffffffffffffffffffffffffff168373ffffffffffffffffffffffffffffffffffffffff161415610607576040517f08c379a00000000000000000000000000000000000000000000000000000000081526004016105fe90612722565b60405180910390fd5b8073ffffffffffffffffffffffffffffffffffffffff16610626610f70565b73ffffffffffffffffffffffffffffffffffffffff16148061065557506106548161064f610f70565b610e06565b5b610694576040517f08c379a000000000000000000000000000000000000000000000000000000000815260040161068b90612602565b60405180910390fd5b61069e8383610f78565b505050565b6106b46106ae610f70565b82611031565b6106f3576040517f08c379a00000000000000000000000000000000000000000000000000000000081526004016106ea90612742565b60405180910390fd5b6106fe83838361110f565b505050565b61071e83838360405180602001604052806000815250610c4c565b505050565b6000806002600084815260200190815260200160002060009054906101000a900473ffffffffffffffffffffffffffffffffffffffff169050600073ffffffffffffffffffffffffffffffffffffffff168173ffffffffffffffffffffffffffffffffffffffff1614156107cc576040517f08c379a00000000000000000000000000000000000000000000000000000000081526004016107c390612642565b60405180910390fd5b80915050919050565b606060006040518060400160405280601a81526020017f646174613a696d6167652f7376672b786d6c3b6261736536342c0000000000008152509050600061083b846040516020016108279190612435565b60405160208183030381529060405261136b565b90506000828260405160200161085292919061244c565b6040516020818303038152906040529050809350505050919050565b60008073ffffffffffffffffffffffffffffffffffffffff168273ffffffffffffffffffffffffffffffffffffffff1614156108df576040517f08c379a00000000000000000000000000000000000000000000000000000000081526004016108d690612622565b60405180910390fd5b600360008373ffffffffffffffffffffffffffffffffffffffff1673ffffffffffffffffffffffffffffffffffffffff168152602001908152602001600020549050919050565b606060006040518060400160405280601d81526020017f646174613a6170706c69636174696f6e2f6a736f6e3b6261736536342c00000081525090508061098b846040516020016109779190612470565b60405160208183030381529060405261136b565b60405160200161099c92919061244c565b604051602081830303815290604052915050919050565b6060600180546109c290612a12565b80601f01602080910402602001604051908101604052809291908181526020018280546109ee90612a12565b8015610a3b5780601f10610a1057610100808354040283529160200191610a3b565b820191906000526020600020905b815481529060010190602001808311610a1e57829003601f168201915b5050505050905090565b610a4d610f70565b73ffffffffffffffffffffffffffffffffffffffff168273ffffffffffffffffffffffffffffffffffffffff161415610abb576040517f08c379a0000000000000000000000000000000000000000000000000000000008152600401610ab2906125c2565b60405180910390fd5b8060056000610ac8610f70565b73ffffffffffffffffffffffffffffffffffffffff1673ffffffffffffffffffffffffffffffffffffffff16815260200190815260200160002060008473ffffffffffffffffffffffffffffffffffffffff1673ffffffffffffffffffffffffffffffffffffffff16815260200190815260200160002060006101000a81548160ff0219169083151502179055508173ffffffffffffffffffffffffffffffffffffffff16610b75610f70565b73ffffffffffffffffffffffffffffffffffffffff167f17307eab39ab6107e8899845ad3d59bd9653f200f220920489ca2b5937696c3183604051610bba9190612525565b60405180910390a35050565b610bd233600754611516565b6000610bdd826107d5565b90506000610bea82610926565b9050610bf860075482611534565b6007547ff5acc616aa8ecd00e5d76674d7812f9c3c3571d662c9fba4499deefa6d0be12d82604051610c2a9190612540565b60405180910390a26001600754610c419190612847565b600781905550505050565b610c5d610c57610f70565b83611031565b610c9c576040517f08c379a0000000000000000000000000000000000000000000000000000000008152600401610c9390612742565b60405180910390fd5b610ca8848484846115a8565b50505050565b6060610cb982610f04565b610cf8576040517f08c379a0000000000000000000000000000000000000000000000000000000008152600401610cef906126a2565b60405180910390fd5b6000600660008481526020019081526020016000208054610d1890612a12565b80601f0160208091040260200160405190810160405280929190818152602001828054610d4490612a12565b8015610d915780601f10610d6657610100808354040283529160200191610d91565b820191906000526020600020905b815481529060010190602001808311610d7457829003601f168201915b505050505090506000610da2611604565b9050600081511415610db8578192505050610dfb565b600082511115610ded578082604051602001610dd592919061244c565b60405160208183030381529060405292505050610dfb565b610df68461161b565b925050505b919050565b60075481565b6000600560008473ffffffffffffffffffffffffffffffffffffffff1673ffffffffffffffffffffffffffffffffffffffff16815260200190815260200160002060008373ffffffffffffffffffffffffffffffffffffffff1673ffffffffffffffffffffffffffffffffffffffff16815260200190815260200160002060009054906101000a900460ff16905092915050565b60007f01ffc9a7000000000000000000000000000000000000000000000000000000007bffffffffffffffffffffffffffffffffffffffffffffffffffffffff1916827bffffffffffffffffffffffffffffffffffffffffffffffffffffffff1916149050919050565b60008073ffffffffffffffffffffffffffffffffffffffff166002600084815260200190815260200160002060009054906101000a900473ffffffffffffffffffffffffffffffffffffffff1673ffffffffffffffffffffffffffffffffffffffff1614159050919050565b600033905090565b816004600083815260200190815260200160002060006101000a81548173ffffffffffffffffffffffffffffffffffffffff021916908373ffffffffffffffffffffffffffffffffffffffff160217905550808273ffffffffffffffffffffffffffffffffffffffff16610feb83610723565b73ffffffffffffffffffffffffffffffffffffffff167f8c5be1e5ebec7d5bd14f71427d1e84f3dd0314c0f7b2291e5b200ac8c7c3b92560405160405180910390a45050565b600061103c82610f04565b61107b576040517f08c379a0000000000000000000000000000000000000000000000000000000008152600401611072906125e2565b60405180910390fd5b600061108683610723565b90508073ffffffffffffffffffffffffffffffffffffffff168473ffffffffffffffffffffffffffffffffffffffff1614806110f557508373ffffffffffffffffffffffffffffffffffffffff166110dd84610506565b73ffffffffffffffffffffffffffffffffffffffff16145b8061110657506111058185610e06565b5b91505092915050565b8273ffffffffffffffffffffffffffffffffffffffff1661112f82610723565b73ffffffffffffffffffffffffffffffffffffffff1614611185576040517f08c379a000000000000000000000000000000000000000000000000000000000815260040161117c906126e2565b60405180910390fd5b600073ffffffffffffffffffffffffffffffffffffffff168273ffffffffffffffffffffffffffffffffffffffff1614156111f5576040517f08c379a00000000000000000000000000000000000000000000000000000000081526004016111ec906125a2565b60405180910390fd5b6112008383836116c2565b61120b600082610f78565b6001600360008573ffffffffffffffffffffffffffffffffffffffff1673ffffffffffffffffffffffffffffffffffffffff168152602001908152602001600020600082825461125b9190612928565b925050819055506001600360008473ffffffffffffffffffffffffffffffffffffffff1673ffffffffffffffffffffffffffffffffffffffff16815260200190815260200160002060008282546112b29190612847565b92505081905550816002600083815260200190815260200160002060006101000a81548173ffffffffffffffffffffffffffffffffffffffff021916908373ffffffffffffffffffffffffffffffffffffffff160217905550808273ffffffffffffffffffffffffffffffffffffffff168473ffffffffffffffffffffffffffffffffffffffff167fddf252ad1be2c89b69c2b068fc378daa952ba7f163c4a11628f55a4df523b3ef60405160405180910390a4505050565b606060008251141561138e57604051806020016040528060008152509050611511565b600060405180606001604052806040815260200161318a60409139905060006003600285516113bd9190612847565b6113c7919061289d565b60046113d391906128ce565b905060006020826113e49190612847565b67ffffffffffffffff811115611423577f4e487b7100000000000000000000000000000000000000000000000000000000600052604160045260246000fd5b6040519080825280601f01601f1916602001820160405280156114555781602001600182028036833780820191505090505b509050818152600183018586518101602084015b818310156114d0576003830192508251603f8160121c1685015160f81b8252600182019150603f81600c1c1685015160f81b8252600182019150603f8160061c1685015160f81b8252600182019150603f811685015160f81b825260018201915050611469565b6003895106600181146114ea57600281146114fa57611505565b613d3d60f01b6002830352611505565b603d60f81b60018303525b50505050508093505050505b919050565b6115308282604051806020016040528060008152506116c7565b5050565b61153d82610f04565b61157c576040517f08c379a000000000000000000000000000000000000000000000000000000000815260040161157390612662565b60405180910390fd5b806006600084815260200190815260200160002090805190602001906115a3929190611c47565b505050565b6115b384848461110f565b6115bf84848484611722565b6115fe576040517f08c379a00000000000000000000000000000000000000000000000000000000081526004016115f590612562565b60405180910390fd5b50505050565b606060405180602001604052806000815250905090565b606061162682610f04565b611665576040517f08c379a000000000000000000000000000000000000000000000000000000000815260040161165c90612702565b60405180910390fd5b600061166f611604565b9050600081511161168f57604051806020016040528060008152506116ba565b80611699846118b9565b6040516020016116aa92919061244c565b6040516020818303038152906040525b915050919050565b505050565b6116d18383611a66565b6116de6000848484611722565b61171d576040517f08c379a000000000000000000000000000000000000000000000000000000000815260040161171490612562565b60405180910390fd5b505050565b60006117438473ffffffffffffffffffffffffffffffffffffffff16611c34565b156118ac578373ffffffffffffffffffffffffffffffffffffffff1663150b7a0261176c610f70565b8786866040518563ffffffff1660e01b815260040161178e94939291906124d9565b602060405180830381600087803b1580156117a857600080fd5b505af19250505080156117d957506040513d601f19601f820116820180604052508101906117d69190611ff3565b60015b61185c573d8060008114611809576040519150601f19603f3d011682016040523d82523d6000602084013e61180e565b606091505b50600081511415611854576040517f08c379a000000000000000000000000000000000000000000000000000000000815260040161184b90612562565b60405180910390fd5b805181602001fd5b63150b7a0260e01b7bffffffffffffffffffffffffffffffffffffffffffffffffffffffff1916817bffffffffffffffffffffffffffffffffffffffffffffffffffffffff1916149150506118b1565b600190505b949350505050565b60606000821415611901576040518060400160405280600181526020017f30000000000000000000000000000000000000000000000000000000000000008152509050611a61565b600082905060005b6000821461193357808061191c90612a75565b915050600a8261192c919061289d565b9150611909565b60008167ffffffffffffffff811115611975577f4e487b7100000000000000000000000000000000000000000000000000000000600052604160045260246000fd5b6040519080825280601f01601f1916602001820160405280156119a75781602001600182028036833780820191505090505b5090505b60008514611a5a576001826119c09190612928565b9150600a856119cf9190612abe565b60306119db9190612847565b60f81b818381518110611a17577f4e487b7100000000000000000000000000000000000000000000000000000000600052603260045260246000fd5b60200101907effffffffffffffffffffffffffffffffffffffffffffffffffffffffffffff1916908160001a905350600a85611a53919061289d565b94506119ab565b8093505050505b919050565b600073ffffffffffffffffffffffffffffffffffffffff168273ffffffffffffffffffffffffffffffffffffffff161415611ad6576040517f08c379a0000000000000000000000000000000000000000000000000000000008152600401611acd90612682565b60405180910390fd5b611adf81610f04565b15611b1f576040517f08c379a0000000000000000000000000000000000000000000000000000000008152600401611b1690612582565b60405180910390fd5b611b2b600083836116c2565b6001600360008473ffffffffffffffffffffffffffffffffffffffff1673ffffffffffffffffffffffffffffffffffffffff1681526020019081526020016000206000828254611b7b9190612847565b92505081905550816002600083815260200190815260200160002060006101000a81548173ffffffffffffffffffffffffffffffffffffffff021916908373ffffffffffffffffffffffffffffffffffffffff160217905550808273ffffffffffffffffffffffffffffffffffffffff16600073ffffffffffffffffffffffffffffffffffffffff167fddf252ad1be2c89b69c2b068fc378daa952ba7f163c4a11628f55a4df523b3ef60405160405180910390a45050565b600080823b905060008111915050919050565b828054611c5390612a12565b90600052602060002090601f016020900481019282611c755760008555611cbc565b82601f10611c8e57805160ff1916838001178555611cbc565b82800160010185558215611cbc579182015b82811115611cbb578251825591602001919060010190611ca0565b5b509050611cc99190611ccd565b5090565b5b80821115611ce6576000816000905550600101611cce565b5090565b6000611cfd611cf8846127a2565b61277d565b905082815260208101848484011115611d1557600080fd5b611d208482856129d0565b509392505050565b6000611d3b611d36846127d3565b61277d565b905082815260208101848484011115611d5357600080fd5b611d5e8482856129d0565b509392505050565b600081359050611d758161312d565b92915050565b600081359050611d8a81613144565b92915050565b600081359050611d9f8161315b565b92915050565b600081519050611db48161315b565b92915050565b600082601f830112611dcb57600080fd5b8135611ddb848260208601611cea565b91505092915050565b600082601f830112611df557600080fd5b8135611e05848260208601611d28565b91505092915050565b600081359050611e1d81613172565b92915050565b600060208284031215611e3557600080fd5b6000611e4384828501611d66565b91505092915050565b60008060408385031215611e5f57600080fd5b6000611e6d85828601611d66565b9250506020611e7e85828601611d66565b9150509250929050565b600080600060608486031215611e9d57600080fd5b6000611eab86828701611d66565b9350506020611ebc86828701611d66565b9250506040611ecd86828701611e0e565b9150509250925092565b60008060008060808587031215611eed57600080fd5b6000611efb87828801611d66565b9450506020611f0c87828801611d66565b9350506040611f1d87828801611e0e565b925050606085013567ffffffffffffffff811115611f3a57600080fd5b611f4687828801611dba565b91505092959194509250565b60008060408385031215611f6557600080fd5b6000611f7385828601611d66565b9250506020611f8485828601611d7b565b9150509250929050565b60008060408385031215611fa157600080fd5b6000611faf85828601611d66565b9250506020611fc085828601611e0e565b9150509250929050565b600060208284031215611fdc57600080fd5b6000611fea84828501611d90565b91505092915050565b60006020828403121561200557600080fd5b600061201384828501611da5565b91505092915050565b60006020828403121561202e57600080fd5b600082013567ffffffffffffffff81111561204857600080fd5b61205484828501611de4565b91505092915050565b60006020828403121561206f57600080fd5b600061207d84828501611e0e565b91505092915050565b61208f8161295c565b82525050565b61209e8161296e565b82525050565b60006120af82612804565b6120b9818561281a565b93506120c98185602086016129df565b6120d281612bab565b840191505092915050565b60006120e88261280f565b6120f2818561282b565b93506121028185602086016129df565b61210b81612bab565b840191505092915050565b60006121218261280f565b61212b818561283c565b935061213b8185602086016129df565b80840191505092915050565b600061215460328361282b565b915061215f82612bbc565b604082019050919050565b6000612177601c8361282b565b915061218282612c0b565b602082019050919050565b600061219a600c8361283c565b91506121a582612c34565b600c82019050919050565b60006121bd60278361283c565b91506121c882612c5d565b602782019050919050565b60006121e060148361283c565b91506121eb82612cac565b601482019050919050565b600061220360248361282b565b915061220e82612cd5565b604082019050919050565b600061222660198361282b565b915061223182612d24565b602082019050919050565b6000612249602c8361282b565b915061225482612d4d565b604082019050919050565b600061226c60388361282b565b915061227782612d9c565b604082019050919050565b600061228f602a8361282b565b915061229a82612deb565b604082019050919050565b60006122b260298361282b565b91506122bd82612e3a565b604082019050919050565b60006122d5602e8361282b565b91506122e082612e89565b604082019050919050565b60006122f860028361283c565b915061230382612ed8565b600282019050919050565b600061231b60208361282b565b915061232682612f01565b602082019050919050565b600061233e60318361282b565b915061234982612f2a565b604082019050919050565b6000612361602c8361282b565b915061236c82612f79565b604082019050919050565b600061238460298361282b565b915061238f82612fc8565b604082019050919050565b60006123a7602f8361282b565b91506123b282613017565b604082019050919050565b60006123ca60218361282b565b91506123d582613066565b604082019050919050565b60006123ed60318361282b565b91506123f8826130b5565b604082019050919050565b600061241060138361283c565b915061241b82613104565b601382019050919050565b61242f816129c6565b82525050565b60006124418284612116565b915081905092915050565b60006124588285612116565b91506124648284612116565b91508190509392505050565b600061247b826121d3565b9150612486826121b0565b915061249182612403565b915061249c8261218d565b91506124a88284612116565b91506124b3826122eb565b915081905092915050565b60006020820190506124d36000830184612086565b92915050565b60006080820190506124ee6000830187612086565b6124fb6020830186612086565b6125086040830185612426565b818103606083015261251a81846120a4565b905095945050505050565b600060208201905061253a6000830184612095565b92915050565b6000602082019050818103600083015261255a81846120dd565b905092915050565b6000602082019050818103600083015261257b81612147565b9050919050565b6000602082019050818103600083015261259b8161216a565b9050919050565b600060208201905081810360008301526125bb816121f6565b9050919050565b600060208201905081810360008301526125db81612219565b9050919050565b600060208201905081810360008301526125fb8161223c565b9050919050565b6000602082019050818103600083015261261b8161225f565b9050919050565b6000602082019050818103600083015261263b81612282565b9050919050565b6000602082019050818103600083015261265b816122a5565b9050919050565b6000602082019050818103600083015261267b816122c8565b9050919050565b6000602082019050818103600083015261269b8161230e565b9050919050565b600060208201905081810360008301526126bb81612331565b9050919050565b600060208201905081810360008301526126db81612354565b9050919050565b600060208201905081810360008301526126fb81612377565b9050919050565b6000602082019050818103600083015261271b8161239a565b9050919050565b6000602082019050818103600083015261273b816123bd565b9050919050565b6000602082019050818103600083015261275b816123e0565b9050919050565b60006020820190506127776000830184612426565b92915050565b6000612787612798565b90506127938282612a44565b919050565b6000604051905090565b600067ffffffffffffffff8211156127bd576127bc612b7c565b5b6127c682612bab565b9050602081019050919050565b600067ffffffffffffffff8211156127ee576127ed612b7c565b5b6127f782612bab565b9050602081019050919050565b600081519050919050565b600081519050919050565b600082825260208201905092915050565b600082825260208201905092915050565b600081905092915050565b6000612852826129c6565b915061285d836129c6565b9250827fffffffffffffffffffffffffffffffffffffffffffffffffffffffffffffffff0382111561289257612891612aef565b5b828201905092915050565b60006128a8826129c6565b91506128b3836129c6565b9250826128c3576128c2612b1e565b5b828204905092915050565b60006128d9826129c6565b91506128e4836129c6565b9250817fffffffffffffffffffffffffffffffffffffffffffffffffffffffffffffffff048311821515161561291d5761291c612aef565b5b828202905092915050565b6000612933826129c6565b915061293e836129c6565b92508282101561295157612950612aef565b5b828203905092915050565b6000612967826129a6565b9050919050565b60008115159050919050565b60007fffffffff0000000000000000000000000000000000000000000000000000000082169050919050565b600073ffffffffffffffffffffffffffffffffffffffff82169050919050565b6000819050919050565b82818337600083830152505050565b60005b838110156129fd5780820151818401526020810190506129e2565b83811115612a0c576000848401525b50505050565b60006002820490506001821680612a2a57607f821691505b60208210811415612a3e57612a3d612b4d565b5b50919050565b612a4d82612bab565b810181811067ffffffffffffffff82111715612a6c57612a6b612b7c565b5b80604052505050565b6000612a80826129c6565b91507fffffffffffffffffffffffffffffffffffffffffffffffffffffffffffffffff821415612ab357612ab2612aef565b5b600182019050919050565b6000612ac9826129c6565b9150612ad4836129c6565b925082612ae457612ae3612b1e565b5b828206905092915050565b7f4e487b7100000000000000000000000000000000000000000000000000000000600052601160045260246000fd5b7f4e487b7100000000000000000000000000000000000000000000000000000000600052601260045260246000fd5b7f4e487b7100000000000000000000000000000000000000000000000000000000600052602260045260246000fd5b7f4e487b7100000000000000000000000000000000000000000000000000000000600052604160045260246000fd5b6000601f19601f8301169050919050565b7f4552433732313a207472616e7366657220746f206e6f6e20455243373231526560008201527f63656976657220696d706c656d656e7465720000000000000000000000000000602082015250565b7f4552433732313a20746f6b656e20616c7265616479206d696e74656400000000600082015250565b7f22696d61676522203a2022200000000000000000000000000000000000000000600082015250565b7f226465736372697074696f6e22203a2022416e204e4654206261736564206f6e60008201527f20535647222c2000000000000000000000000000000000000000000000000000602082015250565b7f7b226e616d65223a2022535647204e4654222c20000000000000000000000000600082015250565b7f4552433732313a207472616e7366657220746f20746865207a65726f2061646460008201527f7265737300000000000000000000000000000000000000000000000000000000602082015250565b7f4552433732313a20617070726f766520746f2063616c6c657200000000000000600082015250565b7f4552433732313a206f70657261746f7220717565727920666f72206e6f6e657860008201527f697374656e7420746f6b656e0000000000000000000000000000000000000000602082015250565b7f4552433732313a20617070726f76652063616c6c6572206973206e6f74206f7760008201527f6e6572206e6f7220617070726f76656420666f7220616c6c0000000000000000602082015250565b7f4552433732313a2062616c616e636520717565727920666f7220746865207a6560008201527f726f206164647265737300000000000000000000000000000000000000000000602082015250565b7f4552433732313a206f776e657220717565727920666f72206e6f6e657869737460008201527f656e7420746f6b656e0000000000000000000000000000000000000000000000602082015250565b7f45524337323155524953746f726167653a2055524920736574206f66206e6f6e60008201527f6578697374656e7420746f6b656e000000000000000000000000000000000000602082015250565b7f227d000000000000000000000000000000000000000000000000000000000000600082015250565b7f4552433732313a206d696e7420746f20746865207a65726f2061646472657373600082015250565b7f45524337323155524953746f726167653a2055524920717565727920666f722060008201527f6e6f6e6578697374656e7420746f6b656e000000000000000000000000000000602082015250565b7f4552433732313a20617070726f76656420717565727920666f72206e6f6e657860008201527f697374656e7420746f6b656e0000000000000000000000000000000000000000602082015250565b7f4552433732313a207472616e73666572206f6620746f6b656e2074686174206960008201527f73206e6f74206f776e0000000000000000000000000000000000000000000000602082015250565b7f4552433732314d657461646174613a2055524920717565727920666f72206e6f60008201527f6e6578697374656e7420746f6b656e0000000000000000000000000000000000602082015250565b7f4552433732313a20617070726f76616c20746f2063757272656e74206f776e6560008201527f7200000000000000000000000000000000000000000000000000000000000000602082015250565b7f4552433732313a207472616e736665722063616c6c6572206973206e6f74206f60008201527f776e6572206e6f7220617070726f766564000000000000000000000000000000602082015250565b7f226174747269627574657322203a2022222c2000000000000000000000000000600082015250565b6131368161295c565b811461314157600080fd5b50565b61314d8161296e565b811461315857600080fd5b50565b6131648161297a565b811461316f57600080fd5b50565b61317b816129c6565b811461318657600080fd5b5056fe4142434445464748494a4b4c4d4e4f505152535455565758595a6162636465666768696a6b6c6d6e6f707172737475767778797a303132333435363738392b2fa2646970667358221220371592bfaa4e7088473819a197450565200e462cae63262f361e2a5b383587f264736f6c63430008040033",
  "devdoc": {
    "kind": "dev",
    "methods": {
      "approve(address,uint256)": {
        "details": "See {IERC721-approve}."
      },
      "balanceOf(address)": {
        "details": "See {IERC721-balanceOf}."
      },
      "getApproved(uint256)": {
        "details": "See {IERC721-getApproved}."
      },
      "isApprovedForAll(address,address)": {
        "details": "See {IERC721-isApprovedForAll}."
      },
      "name()": {
        "details": "See {IERC721Metadata-name}."
      },
      "ownerOf(uint256)": {
        "details": "See {IERC721-ownerOf}."
      },
      "safeTransferFrom(address,address,uint256)": {
        "details": "See {IERC721-safeTransferFrom}."
      },
      "safeTransferFrom(address,address,uint256,bytes)": {
        "details": "See {IERC721-safeTransferFrom}."
      },
      "setApprovalForAll(address,bool)": {
        "details": "See {IERC721-setApprovalForAll}."
      },
      "supportsInterface(bytes4)": {
        "details": "See {IERC165-supportsInterface}."
      },
      "symbol()": {
        "details": "See {IERC721Metadata-symbol}."
      },
      "tokenURI(uint256)": {
        "details": "See {IERC721Metadata-tokenURI}."
      },
      "transferFrom(address,address,uint256)": {
        "details": "See {IERC721-transferFrom}."
      }
    },
    "version": 1
  },
  "userdoc": {
    "kind": "user",
    "methods": {},
    "version": 1
  },
  "storageLayout": {
    "storage": [
      {
        "astId": 25,
        "contract": "contracts/SVGNFT.sol:SVGNFT",
        "label": "_name",
        "offset": 0,
        "slot": "0",
        "type": "t_string_storage"
      },
      {
        "astId": 27,
        "contract": "contracts/SVGNFT.sol:SVGNFT",
        "label": "_symbol",
        "offset": 0,
        "slot": "1",
        "type": "t_string_storage"
      },
      {
        "astId": 31,
        "contract": "contracts/SVGNFT.sol:SVGNFT",
        "label": "_owners",
        "offset": 0,
        "slot": "2",
        "type": "t_mapping(t_uint256,t_address)"
      },
      {
        "astId": 35,
        "contract": "contracts/SVGNFT.sol:SVGNFT",
        "label": "_balances",
        "offset": 0,
        "slot": "3",
        "type": "t_mapping(t_address,t_uint256)"
      },
      {
        "astId": 39,
        "contract": "contracts/SVGNFT.sol:SVGNFT",
        "label": "_tokenApprovals",
        "offset": 0,
        "slot": "4",
        "type": "t_mapping(t_uint256,t_address)"
      },
      {
        "astId": 45,
        "contract": "contracts/SVGNFT.sol:SVGNFT",
        "label": "_operatorApprovals",
        "offset": 0,
        "slot": "5",
        "type": "t_mapping(t_address,t_mapping(t_address,t_bool))"
      },
      {
        "astId": 962,
        "contract": "contracts/SVGNFT.sol:SVGNFT",
        "label": "_tokenURIs",
        "offset": 0,
        "slot": "6",
        "type": "t_mapping(t_uint256,t_string_storage)"
      },
      {
        "astId": 1720,
        "contract": "contracts/SVGNFT.sol:SVGNFT",
        "label": "tokenCounter",
        "offset": 0,
        "slot": "7",
        "type": "t_uint256"
      }
    ],
    "types": {
      "t_address": {
        "encoding": "inplace",
        "label": "address",
        "numberOfBytes": "20"
      },
      "t_bool": {
        "encoding": "inplace",
        "label": "bool",
        "numberOfBytes": "1"
      },
      "t_mapping(t_address,t_bool)": {
        "encoding": "mapping",
        "key": "t_address",
        "label": "mapping(address => bool)",
        "numberOfBytes": "32",
        "value": "t_bool"
      },
      "t_mapping(t_address,t_mapping(t_address,t_bool))": {
        "encoding": "mapping",
        "key": "t_address",
        "label": "mapping(address => mapping(address => bool))",
        "numberOfBytes": "32",
        "value": "t_mapping(t_address,t_bool)"
      },
      "t_mapping(t_address,t_uint256)": {
        "encoding": "mapping",
        "key": "t_address",
        "label": "mapping(address => uint256)",
        "numberOfBytes": "32",
        "value": "t_uint256"
      },
      "t_mapping(t_uint256,t_address)": {
        "encoding": "mapping",
        "key": "t_uint256",
        "label": "mapping(uint256 => address)",
        "numberOfBytes": "32",
        "value": "t_address"
      },
      "t_mapping(t_uint256,t_string_storage)": {
        "encoding": "mapping",
        "key": "t_uint256",
        "label": "mapping(uint256 => string)",
        "numberOfBytes": "32",
        "value": "t_string_storage"
      },
      "t_string_storage": {
        "encoding": "bytes",
        "label": "string",
        "numberOfBytes": "32"
      },
      "t_uint256": {
        "encoding": "inplace",
        "label": "uint256",
        "numberOfBytes": "32"
      }
    }
  }
}